:100000000C9434000C9451000C9451000C94510049
:100010000C9451000C9451000C9451000C9451001C
:100020000C9451000C9451000C9451000C944E030C
:100030000C9451000C9451000C9451000C945100FC
:100040000C9451000C9451000C9451000C945100EC
:100050000C9451000C9451000C9451000C945100DC
:100060000C9451000C94510011241FBECFEFD8E026
:10007000DEBFCDBF12E0A0E0B1E0ECEEF8E002C0E0
:1000800005900D92A833B107D9F722E0A8E3B2E0BA
:1000900001C01D92A736B207E1F70E94DB020C9463
:1000A00074040C940000CF93DF93CDB7DEB727978D
:1000B0000FB6F894DEBF0FBECDBF8D837F836E83F6
:1000C0008E819F819C838B83198206C08D8184568B
:1000D0008D8389818F5F89838D818436B8F71A82F9
:1000E00006C08D818A508D838A818F5F8A838D813E
:1000F0008A30B8F78981805D282F8B819C81FC0133
:1001000020838B819C8101969C838B838A81805D77
:10011000282F8B819C81FC0120838B819C810196FF
:100120009C838B838D81805D282F8B819C81FC013A
:10013000208327960FB6F894DEBF0FBECDBFDF91A8
:10014000CF910895CF93DF93CDB7DEB72D970FB63C
:10015000F894DEBF0FBECDBF998788877B876A87FB
:100160004C872D878A859B859F838E838FEF8D8318
:10017000198209C088859985805197429987888717
:1001800089818F5F898388859985803127E29207ED
:1001900088F71A8209C088859985885E9340998777
:1001A00088878A818F5F8A8388859985883EE3E086
:1001B0009E0788F71B8209C0888599858456910916
:1001C000998788878B818F5F8B8388859985843613
:1001D000910590F71C8208C0888599850A979987B0
:1001E00088878C818F5F8C83888599858A3091057B
:1001F00098F78981882349F48D85882331F08E8191
:100200009F8120E2FC01208307C08981805D282F27
:100210008E819F81FC0120838981882309F01D82C2
:100220008E819F8101969F838E838A81882361F4CA
:100230008D85882349F08D81882331F08E819F81BF
:1002400020E2FC01208307C08A81805D282F8E81F7
:100250009F81FC0120838A81882309F01D828E8181
:100260009F8101969F838E838B81882361F48D8586
:10027000882349F08D81882331F08E819F8120E28F
:10028000FC01208307C08B81805D282F8E819F8198
:10029000FC0120838B81882309F01D828E819F8140
:1002A00001969F838E838C81882361F48D858823BA
:1002B00049F08D81882331F08E819F8120E2FC01FD
:1002C000208307C08C81805D282F8E819F81FC0157
:1002D00020838E819F8101969F838E838885805D98
:1002E000282F8E819F81FC0120838C85882349F0F3
:1002F0008E819F8101969F838E838E819F81FC01D9
:1003000010822D960FB6F894DEBF0FBECDBFDF91E1
:10031000CF910895CF93DF93CDB7DEB727970FB670
:10032000F894DEBF0FBECDBF89837B836A8389814A
:10033000282F30E040E050E083EC92EADC010E949C
:100340003804DC01CB012A813B81990140E050E077
:10035000BC01CD010E941904DA01C90127960FB62C
:10036000F894DEBF0FBECDBFDF91CF9108950F93FC
:100370001F93CF93DF9300D0CDB7DEB79A838983E5
:100380001092650220C080916502082F10E08091D4
:100390006502882F90E080509F4FFC012081898169
:1003A0009A81BC01822F0E948A019C01C801880F9A
:1003B000991F8C5B9D4FFC013183208380916502E6
:1003C0008F5F80936502809165028031E0F20F902B
:1003D0000F90DF91CF911F910F910895CF93DF93ED
:1003E000CDB7DEB780913802909139028430910503
:1003F00028F48CE291E00E94B7018DC08091380210
:10040000909139028430910590F180913802909159
:1004100039028436910558F58091100190911101AF
:10042000863425E09207B0F42091380230913902E9
:10043000C901880F991F880F991F280F391F8091B4
:10044000100190911101820F931F909311018093DD
:10045000100106C086E495E090931101809310018D
:1004600080911001909111010E94B70154C08091B8
:100470003802909139028436910538F18091380222
:1004800090913902883823E19207F8F480911001A5
:1004900090911101843321E2920750F48091100170
:1004A000909111010A96909311018093100106C05A
:1004B00084E391E2909311018093100180911001E7
:1004C000909111010E94B70126C08091380290914D
:1004D0003902883823E19207F0F080911001909161
:1004E0001101873425E0920750F08091100190911E
:1004F00011014297909311018093100106C086E488
:1005000095E09093110180931001809110019091DA
:1005100011010E94B701DF91CF910895CF93DF932E
:100520001F92CDB7DEB789838981882351F48BE28E
:1005300090E02BE230E0F90120812061FC01208372
:1005400016C08981823051F489E290E029E230E0DE
:10055000F90120812061FC01208309C08BE290E039
:100560002BE230E0F90120812F7EFC0120830F90E7
:10057000DF91CF910895CF93DF931F92CDB7DEB770
:1005800089838981882351F48BE290E02BE230E06B
:10059000F90120812068FC01208309C08BE290E0F2
:1005A0002BE230E0F90120812F77FC0120830F90AE
:1005B000DF91CF910895CF93DF93CDB7DEB78AE275
:1005C00090E020E9FC01208380E00E948E0281E817
:1005D00090E021E830E0F90120812B7FFC012083AD
:1005E00081E890E021E830E0F90120812B60FC01F6
:1005F000208386E390E022E0FC0120838FE690E0F8
:1006000022E0FC01208388E890E02EEF3FEFFC0120
:10061000318320830E94BF0384E191E00E94FB03A9
:1006200080E791E00E94FB0380E891E00E94FB03D9
:1006300083EA91E00E94FB038CEC91E00E94FB03B3
:1006400083EF91E00E94FB0378948091120188234C
:1006500021F1109212018091380290913902019695
:1006600090933902809338020E94EE01809110012C
:10067000909111012FEF4FEF6AE372E00E94A20008
:1006800080E292E00E94FB038AE392E00E94FB0377
:1006900082E392E00E94FB03D8CFD7CF1F920F9244
:1006A00000905F000F9211242F933F934F935F931D
:1006B0006F937F938F939F93AF93BF93EF93FF932A
:1006C000CF93DF93CDB7DEB788E890E02091660244
:1006D000222F30E0220F331F2C5B3D4FF901208188
:1006E0003181FC013183208380916602882F90E064
:1006F0008130910589F08F309105D1F0009709F58F
:1007000081E00E948E0280E00E94BB0281E0809323
:100710006602109212011FC082E00E948E0281E0E8
:100720000E94BB0282E0809366021092120113C005
:100730001092660282E00E948E028FEF8093120177
:100740000AC082E00E948E02809166028F5F8093D1
:10075000660210921201DF91CF91FF91EF91BF914C
:10076000AF919F918F917F916F915F914F913F9149
:100770002F910F9000925F000F901F901895CF93CC
:10078000DF93CDB7DEB785EC90E020911301222FE7
:1007900030E0232F330F330BFC01208384EC90E0F7
:1007A00020911301FC01208381EC90E028E1FC0101
:1007B000208382EC90E026E0FC012083DF91CF9142
:1007C0000895CF93DF931F92CDB7DEB789830000E2
:1007D00080EC90E0FC018081882F90E08072992766
:1007E0000097B1F386EC90E02981FC0120830F9003
:1007F000DF91CF910895CF93DF9300D0CDB7DEB7CF
:100800009A8389830BC089819A81FC0180810E942F
:10081000E10389819A8101969A83898389819A81EA
:10082000FC018081882379F70F900F90DF91CF91A1
:100830000895052E97FB1EF400940E94300457FD86
:1008400007D00E94430407FC03D04EF40C943004FC
:1008500050954095309521953F4F4F4F5F4F0895EC
:1008600090958095709561957F4F8F4F9F4F08951C
:100870000E946504A59F900DB49F900DA49F800DCC
:10088000911D11240895A1E21A2EAA1BBB1BFD0184
:100890000DC0AA1FBB1FEE1FFF1FA217B307E4075F
:1008A000F50720F0A21BB30BE40BF50B661F771FB7
:1008B000881F991F1A9469F7609570958095909597
:1008C0009B01AC01BD01CF010895A29FB001B39F70
:1008D000C001A39F700D811D1124911DB29F700D49
:0C08E000811D1124911D0895F894FFCF94
:1008EC0028320A500555055528320A50055505552C
:1008FC002C0101190D200A200D200A202E200D207C
:10090C000A202E200D200A202E200D200A200D203A
:10091C000A202A2A2A2058545A203636302063724C
:10092C00616E6B207069636B7570207369676E61A3
:10093C006C2073696D756C61746F7220626F6F746B
:10094C00696E67202E2E2E202A2A2A200D200A00BE
:10095C000D200A20636F6E6669673A200D200A002D
:10096C0058545A20363630206372616E6B2073698E
:10097C00676E616C206F6E20504F52544434200DC2
:10098C00200A002D504F525444342069732064695E
:10099C00676974616C2034206F6E204172647569D4
:1009AC006E6F20554E4F2D200D200A000D200A5839
:1009BC00545A20363630206372616E6B2074726923
:1009CC0067676572206F6E20504F52544437200D6C
:1009DC00200A002D504F525444372069732064690B
:1009EC00676974616C2037206F6E20417264756981
:1009FC006E6F20554E4F2D200D200A200D200A0021
:100A0C000D2020656E67696E652073706565643AAC
:080A1C0020002072706D000043
:00000001FF
