:100000000C9469000C9486000C9486000C94860075
:100010000C9486000C9486000C9486000C94860048
:100020000C9486000C9486000C9486000C941305A6
:100030000C9486000C9486000C947E050C9486002B
:100040000C9486000C9486000C945E070C94860039
:100050000C9486000C9486000C9486000C94860008
:100060000C9486000C9486008A038D0390039303FE
:10007000960399039C039F03B903BC03BF03C20308
:10008000C503C803CB03CE036F66663A00207469CC
:100090006D696E67733A206F6E3A20002064656761
:1000A0002C2070726F66696C653A20002064656769
:1000B0002C206477656C6C20616476616E63653AB0
:1000C000200072706D2C20616476616E63653A2049
:1000D000000011241FBECFEFD8E0DEBFCDBF12E07D
:1000E000A0E0B1E0EEECFFE002C005900D92AE3969
:1000F000B107D9F723E0AEE9B2E001C01D92AF30FD
:10010000B207E1F70E94C1040C94E5070C940000CB
:10011000FB01843638F09CE9980F943628F0885C0F
:1001200022E004C020E002C0892F21E090E08A3064
:1001300018F08A509F5FFBCF205D2083905D9183F4
:10014000805D82830895CF93DF93C82F843638F083
:100150008CE98C0F843628F0C85C82E004C080E013
:1001600002C0C82F81E0D0E0CA3018F0CA50DF5F6B
:10017000FBCF811102C080E201C0805D0E94C306F6
:10018000D11102C080E202C080E38D0F0E94C3063D
:1001900080E38C0F0E94C30680E2DF91CF910C9424
:1001A000C306FB0187FF04C09DE29083819502C0D6
:1001B00090E2908320E084361CF084562F5FFBCFC2
:1001C00090E08A301CF08A509F5FFBCF205D218336
:1001D000905D9283805D83830895CF93DF93C82FD2
:1001E00087FF05C08DE20E94C306C19503C080E26F
:1001F0000E94C30680E0C4361CF0C4568F5FFBCF5C
:10020000D0E0CA301CF0CA50DF5FFBCF811102C0C2
:1002100080E201C0805D0E94C306D11102C080E26D
:1002200002C080E38D0F0E94C30680E38C0F0E9402
:10023000C30680E2DF91CF910C94C306FB01A0E0DE
:10024000803137E2930720F080519742AF5FF8CFBB
:1002500060E0883E33E0930720F0885E93406F5F54
:10026000F8CF50E08436910520F0845691095F5F05
:10027000F9CF70E08A30910518F00A977F5FFACFC6
:10028000A11108C0222331F030E23083662379F0D7
:100290003FEF16C030E33A0F308331E0A11130E078
:1002A000319561110DC0222359F0332349F030E21A
:1002B0003183511111C020E222837723C9F01BC082
:1002C000A0E3A60FA183611130E0511106C02223E3
:1002D00021F03111F0CF01C03FEF60E3650F628381
:1002E000511130E0711107C0222329F0332319F096
:1002F00020E2238302C0705D7383805D848341119B
:1003000015820895FF920F931F93CF93DF93EC0113
:1003100080E0C03197E2D90720F0C051D7428F5F0B
:10032000F8CFF12CC83E93E0D90720F0C85ED34047
:10033000F394F8CF00E0C436D10520F0C456D109BB
:100340000F5FF9CF10E0CA30D10518F02A971F5F70
:10035000FACF811102C080E201C0805D0E94C30615
:10036000F11002C080E202C080E38F0D0E94C3063C
:10037000011102C080E202C080E3800F0E94C30628
:10038000111102C080E202C080E3810F0E94C30607
:100390008C2F805D0E94C30680E2DF91CF911F9178
:1003A0000F91FF900C94C306FB01A82FB0E025E14C
:1003B00036E145E050E00E94DA079F0140E050E05E
:1003C0000E94A307C9010895AB019C01A1EBB8E20B
:1003D0000E94CB079A0140E050E00E94A3073093AF
:1003E000C0022093BF028091BF029091C0028F3F54
:1003F000910509F028F48091BF029091C002089500
:100400008FEF0895292F269530E0F901E050FF4F36
:1004100080810895292F269530E0F901EE0FFF1F06
:10042000ED5EFE4F8081918108950F931F93CF93CE
:10043000DF9300D000D0CDB7DEB79A8389837C8369
:100440006B83FA0189018B819C81892B29F483E0DC
:100450008083F901108280C08B819C810B9748F4C6
:1004600082E0808369817A812B813C818AE090E0FF
:100470006DC08B819C810B9768F08B819C81CD979F
:1004800048F481E0808369817A812B813C818CE30F
:1004900090E05CC08B819C81CD9768F08B819C81C2
:1004A0008536910540F4108269817A812B813C81E7
:1004B00084E690E04BC08B819C818536910570F07D
:1004C0008B819C818A3B910548F487E08083698118
:1004D0007A812B813C8189EB90E038C08B819C81B3
:1004E0008A3B910570F08B819C818F3B910548F48C
:1004F00086E0808369817A812B813C818EEB90E05C
:1005000025C08B819C818F3B910570F08B819C81F4
:100510008431914048F485E0808369817A812B8120
:100520003C8183E191E012C08B819C8184319140B8
:1005300098F08B819C818931914070F484E08083B4
:1005400069817A812B813C8188E191E0821B930B48
:100550000E94E401F8018083F80180810F900F90E0
:100560000F900F90DF91CF911F910F910895CF922F
:10057000DF92EF92FF920F931F93CF93DF93EC01E3
:100580001092CC026C01E12CF12C8091CC028830CD
:1005900008F50091CC0210E0E091CC02F0E0E35CC1
:1005A000FE4FA081B0E025E136E145E050E00E9439
:1005B000DA07A70196010E94A307000F111F035538
:1005C0001D4FF801318320838091CC028F5F80938F
:1005D000CC02DBCFC53CF9E0DF07B0F18E01012F83
:1005E00011270695F801E050FF4F80818093CB02E0
:1005F0006091CB0270E02EE932E049EC52E0CE018E
:100600000E9415022091CB02F801EE0FFF1FED5E54
:10061000FE4F80819181820F911D9093C202809341
:10062000C1026091C1027091C20222EA32E041EA45
:1006300052E0CE01DF91CF911F910F91FF90EF908B
:10064000DF90CF900C9415021092A102CD3BD240C6
:1006500038F082E08093C9028AE08093CB0205C023
:1006600083E08093C9021092CB021092A2021092F2
:100670009E02DF91CF911F910F91FF90EF90DF903D
:10068000CF900895811102C05C9A0895823019F4C8
:1006900080E189B908955C980895811102C05F9A3C
:1006A0000895823019F480E889B908955F98089513
:1006B0008DE00E94C30680913A0190913B010E9417
:1006C000820182EC90E00E94D6068091CB020E94CB
:1006D000A3008CEA90E00E94D6068091C10290911E
:1006E000C2020E9482018CE990E00E94D6068091AD
:1006F000CA020E94A3008DE890E00E94D606809175
:10070000A10290E088309105F0F4FC01EC5CFF4F11
:100710000C94C50785E491E014C088E491E011C011
:100720008BE491E00EC08EE491E00BC081E591E096
:1007300008C084E591E005C087E591E002C08AE544
:1007400091E00E94CA068DE20E94C3068091A20237
:100750000E94A30088E890E00E94D6068091C9021A
:1007600090E088309105F0F4FC01E45CFF4F0C94BC
:10077000C50785E491E014C088E491E011C08BE4E2
:1007800091E00EC08EE491E00BC081E591E008C0DD
:1007900084E591E005C087E591E002C08AE591E03B
:1007A0000E94CA068DE20E94C30680919E020C94AC
:1007B000A300CF938091BE0281110FC00E94120747
:1007C0008093C302823739F09DE9980F923018F078
:1007D000893609F0D4C081E010C08091BE02863015
:1007E00078F4C091BE020E941207EC2FF0E0ED53A6
:1007F000FD4F80838091BE028F5F8093BE02BFC099
:10080000C091C402B091C502A091C602F091C70286
:10081000E091C8022C2F332727FD30952053310952
:1008200040E157E2249FC001259F900D349F900D19
:1008300011242B2F332727FD30952053310968EEE3
:1008400073E0269FA001279F500D369F500D112465
:10085000840F951F2A2F332727FD30952053310908
:1008600064E6629FA001639F500D1124840F951FC1
:100870002F2F332727FD3095205331096AE0629FDF
:10088000A001639F500D1124840F951F2E2F332735
:1008900027FD309520533109820F931F2091C30209
:1008A000243669F124F4233609F441C066C02936A0
:1008B00089F0223709F061C02091CA0221115DC080
:1008C00081322EE4920708F058C090933B01809348
:1008D0003A0153C02091CA0221114FC020913A0120
:1008E00030913B01280F391F21323E4408F045C0AA
:1008F00020913A0130913B01280F391F13C02091FC
:10090000CA0221113AC020913A0130913B01281BC3
:10091000390B21323E4488F520913A0130913B0158
:10092000281B390B30933B0120933A0126C080915C
:10093000CA02882369F0CE3659F4BF36F1F4A037E5
:10094000E1F4F237D1F4EF36C1F41092CA0215C0C7
:10095000C03799F4B23789F4AF3679F4F63669F4D2
:10096000E053EA3010F4E093CA021092A002109211
:100970009F0210923B0110923A011092BE02CF9159
:10098000089580E98AB95C9A81E00E944D038AE06B
:100990008093810022E026BB20936F008EEF9FEFB3
:1009A000909389008093880024BD84E085BD8FEFFB
:1009B00087BD0E94B0068DE591E00E94CA0689EBD2
:1009C00091E00E94CA0689EC91E00E94CA068CEE72
:1009D00091E00E94CA0685E192E00E94CA0683E483
:1009E00092E00E94CA0681E08093CA0278948091C6
:1009F0003901882389F01092390180919F029091EA
:100A0000A00201969093A00280939F028091CA0257
:100A10000E9499060E9458030E94F806882339F321
:100A20000E94D903E4CF1F920F920FB60F921124A8
:100A30002F933F934F935F936F937F938F939F93E6
:100A4000AF93BF93EF93FF9380913C01873041F4C4
:100A500010923C0181E0809339010E94420307C05B
:100A600080913C018F5F80933C0180E189B9E091E6
:100A70003C01F0E0EE0FFF1FE355FD4F80819181B7
:100A8000909389008093880090913C018091A1020D
:100A900098130AC08091A202811102C05F9A1DC002
:100AA00016BC8091A20211C090913C018091C902B4
:100AB000981313C080919E02811104C081E00E94AE
:100AC0004D030BC016BC80919E0287BD87E085BB9D
:100AD00080916E00826080936E00FF91EF91BF91D4
:100AE000AF919F918F917F916F915F914F913F91C6
:100AF0002F910F900FBE0F901F9018951F920F927D
:100B00000FB60F9211242F933F934F935F936F93E0
:100B10007F938F939F93AF93BF93EF93FF939091A6
:100B20003C018091A102981302C05F9A09C0909184
:100B30003C018091C902981303C081E00E944D03DB
:100B40008FEF87BD80916E008D7F80936E00FF9147
:100B5000EF91BF91AF919F918F917F916F915F9135
:100B60004F913F912F910F900FBE0F901F901895AE
:100B700080919F029091A002049718F48CE291E07A
:100B800062C080919F029091A002049700F1809131
:100B90009F029091A00284369105C8F480913A0199
:100BA00090913B018634954008F043C020913A0172
:100BB00030913B0140919F025091A00265E0649FFB
:100BC000C001659F900D1124820F931F34C0809146
:100BD0009F029091A00284369105B8F080919F0207
:100BE0009091A0028838934180F480913A019091CD
:100BF0003B018433914230F480913A0190913B0162
:100C00000A9619C084E391E216C080919F029091E8
:100C1000A00288389341C8F080913A0190913B013D
:100C20008734954030F080913A0190913B01429792
:100C300002C086E495E090933B0180933A01809155
:100C40003A0190913B010C94B702089580919F0264
:100C50009091A002039718F48CE291E01AC0809161
:100C60003A0190913B018634954088F420913A01F5
:100C700030913B0140919F025091A00265E0649F3A
:100C8000C001659F900D1124820F931F02C086E45E
:100C900095E090933B0180933A0180913A019091C5
:100CA0003B010C94B70280919F029091A002843680
:100CB000910518F486E495E00FC080913A01909177
:100CC0003B018433914230F480913A0190913B0191
:100CD000019602C084E391E290933B0180933A0134
:100CE00080913A0190913B010C94B70280919F0250
:100CF0009091A0028436910518F486E495E00FC027
:100D000080913A0190913B018433914230F480917B
:100D10003A0190913B010A9602C084E391E29093DC
:100D20003B0180933A0180913A0190913B010C94F0
:100D3000B702823079F040F4811110C080913A01FD
:100D400090913B010C94B702833031F0843031F440
:100D50000C9476060C9426060C9453060C94B80555
:100D60001092C50080E18093C40082E08093C000AF
:100D700088E98093C10086E08093C20010920E0340
:100D800010920D0308959091C00095FFFCCF8093C1
:100D9000C6000895CF93DF93EC018991882319F061
:100DA0000E94C306FACFDF91CF910895CF93DF93CE
:100DB000EC01CE01FE012491222331F02196FC01A9
:100DC00084910E94C306F5CFDF91CF9108958DE005
:100DD0000E94C3068AE00C94C30610920E03109280
:100DE0000D030895E1ECF0E080818F778083089512
:100DF00090910E0380910D03891728F480910E03C2
:100E000090910D030BC090910E0380910D039817E4
:100E100038F480910E0390910D03805C891B089536
:100E200080E0089590910D0380910E03981791F042
:100E3000E0910D03F0E0E353FD4F808190910D03AD
:100E40009F5F90930D0390910D03903421F41092C5
:100E50000D0308958FEF08951F93CF93DF93182FFD
:100E600080E792E00E94CA06C0E0D0E0FE01E353B2
:100E7000FD4F80810E94C3068BE30E94C3068C2F26
:100E80008F5F181720F02196C034D10579F70E94A2
:100E9000E70680E892E00E94CA0680910E030E9455
:100EA000A3000E94E7068CE892E00E94CA060E9416
:100EB000F806DF91CF911F910C94A3001F920F921F
:100EC0000FB60F9211242F933F938F939F93EF931D
:100ED000FF9390910E0380910D03981720F080915D
:100EE0000E038F3391F480910E038F3321F48091A0
:100EF0000D0381110AC020910E0380910D0330E093
:100F000090E00197281739079CF4E0910E03F0E078
:100F10008091C600E353FD4F808380910E038F5F65
:100F200080930E0380910E03803411F410920E030F
:100F3000FF91EF919F918F913F912F910F900FBE55
:100F40000F901F901895A1E21A2EAA1BBB1BFD0142
:100F50000DC0AA1FBB1FEE1FFF1FA217B307E40798
:100F6000F50720F0A21BB30BE40BF50B661F771FF0
:100F7000881F991F1A9469F76095709580959095D0
:100F80009B01AC01BD01CF010895EE0FFF1F05903D
:100F9000F491E02D0994A29FB001B39FC001A39FDB
:100FA000700D811D1124911DB29F700D811D1124A2
:100FB000911D08950E94CB07A59F900DB49F900DA1
:0E0FC000A49F800D911D11240895F894FFCF79
:100FCE0000030C0C0C0C18191C1E1F2123232326A6
:100FDE0026262600000F001F002E003D004D005C4F
:100FEE00006C007B008A009A00A900B800C800D7E8
:100FFE0000E600F60005011401012C010728320A53
:10100E005005550555413100413200423100423202
:10101E00004331004332004431004432000D200AB7
:10102E00200D200A202E200D200A202E200D200A11
:10103E00202E200D200A200D200A202A2A2A205890
:10104E00545A20363630206372616E6B207069639D
:10105E006B7570207369676E616C2073696D756C4A
:10106E0061746F7220626F6F74696E67202E2E2E00
:10107E00202A2A2A200D200A000D200A20636F6ED6
:10108E006669673A200D200A0058545A20363630C9
:10109E00206372616E6B207369676E616C206F6E78
:1010AE0020504F52544434200D200A002D504F52E0
:1010BE00544434206973206469676974616C203408
:1010CE00206F6E2041726475696E6F20554E4F2DE4
:1010DE00200D200A000D200A58545A203636302092
:1010EE0069676E6974696F6E20636F696C207369CE
:1010FE00676E616C206F6E20504F52544437200D36
:10110E00200A002D504F52544437206973206469D1
:10111E00676974616C2037206F6E20417264756947
:10112E006E6F20554E4F2D200D200A200D200A00E7
:10113E000D200A206275666665723A200D200A003F
:10114E0072785F706F696E7465723A00617661696C
:0E115E006C2066756E637420736179733A00BD
:00000001FF
