:100000000C9444000C9461000C9461000C94610009
:100010000C9461000C9461000C9461000C946100DC
:100020000C9461000C9461000C9461000C94F70531
:100030000C9461000C9461000C9493060C94610084
:100040000C9461000C9461000C9461000C946100AC
:100050000C9461000C9461000C9461000C9461009C
:100060000C9461000C94610067056C0571057605C0
:100070007B05800585058A05BB05C005C505CA0544
:10008000CF05D405D905DE0511241FBECFEFD8E07A
:10009000DEBFCDBF12E0A0E0B1E0E2E1FFE002C0D0
:1000A00005900D92A63AB107D9F722E0A6EAB2E090
:1000B00001C01D92AD3CB207E1F70E94C8040C9448
:1000C00087070C940000CF93DF93CDB7DEB7279757
:1000D0000FB6F894DEBF0FBECDBF8D837F836E83D6
:1000E0008E819F819C838B83198206C08D8184566B
:1000F0008D8389818F5F89838D818436B8F71A82D9
:1001000006C08D818A508D838A818F5F8A838D811D
:100110008A30B8F78981805D282F8B819C81FC0112
:1001200020838B819C8101969C838B838A81805D57
:10013000282F8B819C81FC0120838B819C810196DF
:100140009C838B838D81805D282F8B819C81FC011A
:10015000208327960FB6F894DEBF0FBECDBFDF9188
:10016000CF910895CF93DF93CDB7DEB72D970FB61C
:10017000F894DEBF0FBECDBF998788877B876A87DB
:100180004C872D878A859B859F838E838FEF8D83F8
:10019000198209C0888599858051974299878887F7
:1001A00089818F5F898388859985803127E29207CD
:1001B00088F71A8209C088859985885E9340998757
:1001C00088878A818F5F8A8388859985883EE3E066
:1001D0009E0788F71B8209C08885998584569109F6
:1001E000998788878B818F5F8B83888599858436F3
:1001F000910590F71C8208C0888599850A97998790
:1002000088878C818F5F8C83888599858A3091055A
:1002100098F78981882349F48D85882331F08E8170
:100220009F8120E2FC01208307C08981805D282F07
:100230008E819F81FC0120838981882309F01D82A2
:100240008E819F8101969F838E838A81882361F4AA
:100250008D85882349F08D81882331F08E819F819F
:1002600020E2FC01208307C08A81805D282F8E81D7
:100270009F81FC0120838A81882309F01D828E8161
:100280009F8101969F838E838B81882361F48D8566
:10029000882349F08D81882331F08E819F8120E26F
:1002A000FC01208307C08B81805D282F8E819F8178
:1002B000FC0120838B81882309F01D828E819F8120
:1002C00001969F838E838C81882361F48D8588239A
:1002D00049F08D81882331F08E819F8120E2FC01DD
:1002E000208307C08C81805D282F8E819F81FC0137
:1002F00020838E819F8101969F838E838885805D78
:10030000282F8E819F81FC0120838C85882349F0D2
:100310008E819F8101969F838E838E819F81FC01B8
:1003200010822D960FB6F894DEBF0FBECDBFDF91C1
:10033000CF910895CF93DF93CDB7DEB727970FB650
:10034000F894DEBF0FBECDBF89837B836A8389812A
:10035000882F90E0A0E0B0E09C01AD0165E176E17E
:1003600085E090E00E943507DC01CB012A813B81CA
:10037000990140E050E0BC01CD010E944507DA013F
:10038000C90127960FB6F894DEBF0FBECDBFDF912F
:10039000CF910895CF93DF93CDB7DEB728970FB6EF
:1003A000F894DEBF0FBECDBF9A8389837C836B83B5
:1003B00089819A819C0140E050E081EB98E2DC0168
:1003C0000E946D07DC01CB012B813C81990140E04B
:1003D00050E0BC01CD010E944507DA01C9019093AC
:1003E000C7028093C6028091C6029091C7028F3FD8
:1003F000910519F010F08FEF04C08091C602909122
:10040000C70228960FB6F894DEBF0FBECDBFDF91AE
:10041000CF910895CF93DF9300D0CDB7DEB79A8305
:10042000898389819A81892F992786958E5C9E4F31
:10043000FC0180810F900F90DF91CF910895CF93B1
:10044000DF9300D0CDB7DEB79A83898389819A8103
:10045000892F99278695880F991F845F9E4FFC01ED
:10046000808191810F900F90DF91CF910895CF936C
:10047000DF93CDB7DEB728970FB6F894DEBF0FBE77
:10048000CDBF9A8389837C836B835E834D8338875A
:100490002F838B819C81009751F48D819E8123E075
:1004A000FC0120838F819885FC011082EAC08B813A
:1004B0009C818B309105C0F48D819E8122E0FC01EE
:1004C000208329813A818B819C814AE050E0BA01E6
:1004D000681B790BCB01B9010E94CA01282F8F81BB
:1004E0009885FC012083CDC08B819C818B30910548
:1004F000E8F08B819C818D339105C0F48D819E81C4
:1005000021E0FC01208329813A818B819C814CE38D
:1005100050E0BA01681B790BCB01B9010E94CA01F6
:10052000282F8F819885FC012083ABC08B819C8113
:100530008D339105E0F08B819C8185369105B8F46F
:100540008D819E81FC01108229813A818B819C8161
:1005500044E650E0BA01681B790BCB01B9010E9457
:10056000CA01282F8F819885FC0120838AC08B8146
:100570009C8185369105E8F08B819C818A3B9105B1
:10058000C0F48D819E8127E0FC01208329813A817E
:100590008B819C8149EB50E0BA01681B790BCB0140
:1005A000B9010E94CA01282F8F819885FC01208300
:1005B00068C08B819C818A3B9105E8F08B819C818E
:1005C0008F3B9105C0F48D819E8126E0FC01208344
:1005D00029813A818B819C814EEB50E0BA01681BE6
:1005E000790BCB01B9010E94CA01282F8F81988510
:1005F000FC01208346C08B819C818F3B9105F0F0EC
:100600008B819C818431F1E09F07C0F48D819E81B4
:1006100025E0FC01208329813A818B819C8143E183
:1006200051E0BA01681B790BCB01B9010E94CA01E4
:10063000282F8F819885FC01208323C08B819C818A
:100640008431F1E09F07E8F08B819C81893121E0C2
:100650009207B8F48D819E8124E0FC0120832981DA
:100660003A818B819C8148E151E0BA01681B790B8A
:10067000CB01B9010E94CA01282F8F819885FC0106
:1006800020838F819885FC01808128960FB6F8948D
:10069000DEBF0FBECDBFDF91CF9108950F931F93A3
:1006A000CF93DF9300D0CDB7DEB79A8389831092C2
:1006B000CC0220C08091CC02082F10E08091CC02A7
:1006C000882F90E080509F4FFC01208189819A8182
:1006D000BC01822F0E949A019C01C801880F991FBA
:1006E0008B549D4FFC01318320838091CC028F5F1E
:1006F0008093CC028091CC028830E0F289819A818B
:10070000853CF9E09F0768F189819A810E940A027D
:100710008093CB028091CB02682F70E089819A810F
:1007200026EA32E04AEC52E00E9437028091CB0286
:10073000082F10E089819A810E941F02800F911F6B
:100740009093C9028093C8026091C8027091C90257
:1007500089819A812AEA32E049EA52E00E9437020E
:100760001EC089819A818D3B22E0920768F0109229
:10077000A90282E08093CA028AE08093CB021092A1
:10078000AA021092A6020BC01092A90283E08093E5
:10079000CA021092CB021092AA021092A6020F90E7
:1007A0000F90DF91CF911F910F910895CF93DF9319
:1007B000CDB7DEB78091A7029091A8028430910551
:1007C00028F48CE291E00E944E038DC08091A70234
:1007D0009091A8028430910590F18091A7029091A8
:1007E000A8028436910558F58091090190910A017B
:1007F000863425E09207B0F42091A7023091A80238
:10080000C901880F991F880F991F280F391F8091E0
:10081000090190910A01820F931F90930A0180931E
:10082000090106C086E495E090930A0180930901CE
:100830008091090190910A010E944E0354C0809159
:10084000A7029091A8028436910538F18091A70201
:100850009091A802883823E19207F8F48091090169
:1008600090910A01843321E2920750F480910901AA
:1008700090910A010A9690930A018093090106C09B
:1008800084E391E290930A01809309018091090128
:1008900090910A010E944E0326C08091A702909178
:1008A000A802883823E19207F0F080910901909125
:1008B0000A01873425E0920750F080910901909158
:1008C0000A01429790930A018093090106C086E4C9
:1008D00095E090930A01809309018091090190911C
:1008E0000A010E944E03DF91CF910895CF93DF93C9
:1008F0001F92CDB7DEB789838981882351F48BE2BB
:1009000090E02BE230E0F90120812061FC0120839E
:1009100012C08981823031F489E290E020E1FC014B
:10092000208309C08BE290E02BE230E0F9012081C6
:100930002F7EFC0120830F90DF91CF910895CF93FC
:10094000DF931F92CDB7DEB789838981882351F465
:100950008BE290E02BE230E0F90120812068FC017D
:10096000208312C08981823031F489E290E020E84E
:10097000FC01208309C08BE290E02BE230E0F9011A
:1009800020812F77FC0120830F90DF91CF91089574
:10099000CF93DF93CDB7DEB78AE290E020E9FC0188
:1009A000208380E00E94760481E00E949F0481E819
:1009B00090E02AE0FC01208386E390E022E0FC0145
:1009C00020838FE690E022E0FC01208388E890E01D
:1009D0002EEF3FEFFC013183208384E490E022E09E
:1009E000FC01208385E490E024E0FC01208387E47F
:1009F00090E02FEFFC0120830E94DE0686E491E068
:100A00000E94170782EA91E00E94170782EB91E0AB
:100A10000E94170785ED91E00E9417078EEF91E085
:100A20000E9417078CE292E00E9417077894809149
:100A30000B01882309F4DAC010920B018091A70200
:100A40009091A80201969093A8028093A7020E9419
:100A5000D6038091090190910A012FEF4FEF6BEAC5
:100A600072E00E94B20089E592E00E9417078BEACB
:100A700092E00E9417078BE692E00E941707809190
:100A8000CB026BEA72E00E9463008091AC020E948C
:100A9000FD068091AD020E94FD068BE792E00E9468
:100AA00017078091A902882F90E0AA2797FDA095AB
:100AB000BA2F40E050E027E030E0841B950B281768
:100AC000390768F18C5C9F4FFC010C94670785E83F
:100AD00092E00E94170723C088E892E00E9417075F
:100AE0001EC08BE892E00E94170719C08EE892E0C2
:100AF0000E94170714C081E992E00E9417070FC0F7
:100B000084E992E00E9417070AC087E992E00E94F8
:100B1000170705C08AE992E00E94170700008DE9D7
:100B200092E00E9417078091AA026BEA72E00E948D
:100B300063008091AC020E94FD068091AD020E948C
:100B4000FD068FE992E00E9417078091CA02882F64
:100B500090E0AA2797FDA095BA2F40E050E027E04B
:100B600030E0841B950B2817390768F1845C9F4F90
:100B7000FC010C94670785E892E00E94170723C0E8
:100B800088E892E00E9417071EC08BE892E00E945E
:100B9000170719C08EE892E00E94170714C081E978
:100BA00092E00E9417070FC084E992E00E941707A5
:100BB0000AC087E992E00E94170705C08AE992E01F
:100BC0000E94170700008DE992E00E9417078091AC
:100BD000A6026BEA72E00E9463008091AC020E9460
:100BE000FD068091AD020E94FD0621CF20CF1F920D
:100BF0000F9200905F000F9211242F933F934F9319
:100C00005F936F937F938F939F93AF93BF93EF9374
:100C1000FF93CF93DF93CDB7DEB780910801873084
:100C200049F41092080181E080930B0181E00E9459
:100C3000760408C0809108018F5F8093080182E0EC
:100C40000E94760488E890E020910801222F30E08D
:100C5000220F331F2B543D4FF90120813181FC01BC
:100C600031832083909108018091A902981709F59A
:100C70008091AA02882321F480E00E949F043FC053
:100C800086E490E0FC01108287E490E02091AA02C3
:100C9000FC01208385E390E027E0FC0120838EE6C1
:100CA00090E02EE630E0F90120812260FC012083F3
:100CB00026C0909108018091CA02981701F5809191
:100CC000A602882321F481E00E949F0418C086E4D4
:100CD00090E0FC01108287E490E02091A602FC01E4
:100CE000208385E390E027E0FC0120838EE690E0FE
:100CF0002EE630E0F90120812260FC012083DF91A3
:100D0000CF91FF91EF91BF91AF919F918F917F9183
:100D10006F915F914F913F912F910F9000925F00E3
:100D20000F901F9018951F920F9200905F000F92E6
:100D300011242F933F934F935F936F937F938F93E0
:100D40009F93AF93BF93EF93FF93CF93DF93CDB771
:100D5000DEB7909108018091A902981721F480E0F4
:100D60000E949F0409C0909108018091CA029817BF
:100D700019F481E00E949F0487E490E02FEFFC01CA
:100D800020838EE690E02EE630E0F90120812D7F71
:100D9000FC012083DF91CF91FF91EF91BF91AF9143
:100DA0009F918F917F916F915F914F913F912F9183
:100DB0000F9000925F000F901F901895CF93DF93D4
:100DC000CDB7DEB785EC90E0FC01108284EC90E0BA
:100DD00020E1FC01208380EC90E022E0FC012083F4
:100DE00081EC90E028E1FC01208382EC90E026E099
:100DF000FC012083DF91CF910895CF93DF931F9261
:100E0000CDB7DEB78983000080EC90E0FC018081E3
:100E1000882F90E0807299270097B1F386EC90E0DC
:100E20002981FC0120830F90DF91CF910895CF930A
:100E3000DF9300D0CDB7DEB79A8389830BC0898159
:100E40009A81FC0180810E94FD0689819A81019628
:100E50009A83898389819A81FC018081882379F72B
:100E60000F900F90DF91CF910895DB018F939F93A7
:100E70000E946D07BF91AF91A29F800D911DA39F0E
:100E8000900DB29F900D11240895A1E21A2EAA1B75
:100E9000BB1BFD010DC0AA1FBB1FEE1FFF1FA2172A
:100EA000B307E407F50720F0A21BB30BE40BF50B27
:100EB000661F771F881F991F1A9469F760957095B0
:100EC000809590959B01AC01BD01CF010895EE0F77
:100ED000FF1F0590F491E02D09940E947807A59FCB
:100EE000900DB49F900DA49F800D911D1124089525
:100EF000A29FB001B39FC001A39F700D811D11245B
:100F0000911DB29F700D811D1124911D0895F894BB
:020F1000FFCF11
:100F120028320A5005550555072C010100000F0023
:100F22001F002E003D004D005C006C007B008A001B
:100F32009A00A900B800C800D700E600F600050133
:100F4200140100030C0C0C0C18191C1E1F21232366
:100F52002326262626070D200A200D200A202E20D1
:100F62000D200A202E200D200A202E200D200A20DE
:100F72000D200A202A2A2A2058545A203636302098
:100F82006372616E6B207069636B75702073696741
:100F92006E616C2073696D756C61746F7220626F23
:100FA2006F74696E67202E2E2E202A2A2A200D2089
:100FB2000A000D200A20636F6E6669673A200D20D1
:100FC2000A0058545A20363630206372616E6B2004
:100FD2007369676E616C206F6E20504F52544434B7
:100FE200200D200A002D504F5254443420697320A2
:100FF2006469676974616C2034206F6E2041726489
:1010020075696E6F20554E4F2D200D200A000D2060
:101012000A58545A203636302069676E6974696FEF
:101022006E20636F696C207369676E616C206F6EEE
:1010320020504F52544437200D200A002D504F5259
:10104200544437206973206469676974616C20377E
:10105200206F6E2041726475696E6F20554E4F2D60
:10106200200D200A200D200A000D2020656E6769E0
:101072006E652073706565643A20002072706D2C75
:1010820020616476616E63653A2000206465672C96
:10109200206F6E3A0041310041320042310042324B
:1010A200004331004332004431004432002D00201D
:0610B2006F66663A0000C3
:00000001FF
